:020000040800F2
:10000000005000202D11000875110008751100081E
:100010007511000875110008751100080000000036
:100020000000000000000000000000007511000842
:100030007511000800000000751100087511000816
:100040007511000875110008751100087511000878
:100050007511000875110008751100087511000868
:100060007511000875110008751100087511000858
:100070007511000875110008751100087511000848
:100080007511000875110008751100087511000838
:100090007511000875110008751100087511000828
:1000A0007511000875110008751100087511000818
:1000B0007511000875110008751100087511000808
:1000C00075110008751100087511000875110008F8
:1000D00075110008751100087511000875110008E8
:1000E0007511000875110008751100080000000066
:1000F0000000000000000000000000000000000000
:0C01000000000000000000005FF808F1A3
:10010C0010B5054C237833B9044B13B10448AFF345
:10011C0000800123237010BD64000020000000004B
:10012C009812000808B5034B1BB103490348AFF301
:10013C00008008BD00000000680000209812000834
:10014C0003685A004CBF43F0004323F000431844AB
:10015C00704700BF2DE9F84339B34F1E04461546CE
:10016C003E464FF0000808EB060101EBD171491037
:10017C0004EBC1094846FFF7E3FF0346C80008300B
:10018C008F4220440BD0AB420BD8FFF7D9FF01387C
:10019C00A84201F10108E6D34846BDE8F883AB421A
:1001AC00FAD9884501D04E1EDDE74FF000094846CC
:1001BC00BDE8F883012807D0022807D0044B00289B
:1001CC000CBF184600207047024870470248704721
:1001DC00B1080008B5080008B908000830B5244B70
:1001EC00044683B08D1E3BB3284601A9AFF30080B3
:1001FC00E8B101992A46FFF7ADFF0146B8B1FFF708
:10020C009FFF4B68A064012B2ED0002B27DB081D11
:10021C00FFF796FF0023C4E913030368002B12DBDE
:10022C00FFF78EFF03460020236103B030BD00238F
:10023C000920236103B030BD0E4B0F491846C91A73
:10024C00C9100191D6E7C3F30360FFF7B3FF002891
:10025C00034614BF00200920236103B030BD0123E5
:10026C00081DC4E91303D8E7002305202361DCE74C
:10027C0000000000C812000890130008036810B5B5
:10028C00DA07044606D49B0700F1480009D500F0B4
:10029C005DFC2368590709D51A070ED5DB0613D563
:1002AC0010BD00F04BFC23685907F5D404F1D000C5
:1002BC0000F054FC23681A07F0D404F5A87000F081
:1002CC0055FC2368DB06EBD404F5E870BDE8104060
:1002DC0000F090BC092070470346006800B1184438
:1002EC00704700BF704700BF70B504460E462046ED
:1002FC00316CFFF773FF054698B9D6F840C032460B
:10030C00214601202369C4F814C098470828EED070
:10031C00072806D12846316CFFF7E4FF301D00F0AA
:10032C0001FC00F047FF00BF2DE9F0474FF0000A39
:10033C00ADF5727D0DF10C0E01F1040CC768D0F80F
:10034C00188006461446BCE80F00AEE80F00BCE867
:10035C000F00AEE80F00BCE80F00AEE80F009CE801
:10036C000F0002AD8EE80F00C5F800A021E02B6C49
:10037C004FF4F072294673617AA800F022FF3146DF
:10038C00504633697AAA9847889C82466C643346F7
:10039C00324649460120CDE90058B8470446F0B929
:1003AC004FF4F07228467AA900F00BFFBAF1080F4F
:1003BC001BD13046296CFFF711FF04F109095FFAD4
:1003CC0089FA04460028D2D0A96B334669643246B8
:1003DC000120CDE900584AF01001B84700B10924BA
:1003EC0020460DF5727DBDE8F087BAF1070FF6D106
:1003FC002046296CFFF776FF03A800F093FB00BFA3
:10040C00406C7047F0B54FF0FF37CB6BF9B00B6415
:10041C0001AC01F1040C0E460546BCE80F000FC4FC
:10042C00BCE80F000FC4BCE80F000FC49CE80F0021
:10043C0084E80F00009706E06A4629462B69984726
:10044C000828044608D128461099FFF7C7FE002853
:10045C00F2D0092079B0F0BD6846FFF70FFF062CEB
:10046C00F7D131462846FFF73FFF00BF10B41446C2
:10047C008461DC6BC16000221C64194610BC53E71C
:10048C0070B54369C6680B64AEB90A460369044685
:10049C000D46014602209847072805D008280FD1A1
:1004AC0029462046FFF720FF3046296CFFF71AFF3C
:1004BC00281D00F037FB0122FFF736FF00F07AFE13
:1004CC0000F078FEC2682AB1D1F83CC00022C1F815
:1004DC0040C029E796E700BF704700BF836801461C
:1004EC000BB1012018477047012912D009D873B9F4
:1004FC000F2A0CD800EB820042681846009B1A6049
:10050C0070470339012994BF012002207047022053
:10051C0070470846704700BF002300B585B00A46F7
:10052C0003A900911946FFF7DFFF039805B05DF8AA
:10053C0004FB00BF012912D009D873B90F2A0CD8BB
:10054C00009900EB82020968184651607047033924
:10055C00012994BF012002207047022070470846F1
:10056C00704700BF002310B584B003AC0392009415
:10057C000A461946FFF7DEFF04B010BD70B54FF008
:10058C00FF36D36BADF50E7D13640DF15C0E02F1ED
:10059C00040C05460C46BCE80F00AEE80F00BCE8A6
:1005AC000F00AEE80F00BCE80F00AEE80F009CE8AF
:1005BC000F008EE80F00169612E00C2116A86A4662
:1005CC00FFF7D0FF214616A8A84778B9694608203E
:1005DC00049B16AA98470528064608D0092805D07A
:1005EC0068462699FFF7FAFD0028E6D0092616A8DA
:1005FC00FFF744FE30460DF50E7D70BD2DE9F04F32
:10060C001E46CC6C89B054F8043B0D46174600F0DE
:10061C0003080694002E79D002228DF81C201A0CA7
:10062C008DF81D201B04D2B2059304EB82042B6DB4
:10063C00B8F1020F08BFAC6B13F001030CD03846B5
:10064C0005A900F071FB18B9082009B0BDE8F08FBE
:10065C00092009B0BDE8F08FD4F800A0BAF1000F62
:10066C00EDD0019300F008030293022E4AD0B4F8A7
:10067C0000A0B4F802900434AA6C0F21384629F07B
:10068C00010B9344FFF748FF834539D82AF0010248
:10069C005A44824294BF002001204FEA490303F0E0
:1006AC0002030AF0010A43EA0A03012B49D0022B88
:1006BC0032D0002BCCD1B8F1000F02D0002840F082
:1006CC00CE800434D4F800A0BAF1000FCDD1384656
:1006DC0005A900F029FB0028BAD1019B002BB3D04F
:1006EC000F213846FFF718FF0E2102463846FFF758
:1006FC0039FF38460F216A4AFFF734FF0720A8E775
:10070C000020CAE7D4F804900834B5E71B0205931F
:10071C000323ADF81C308AE7236823F0004BB8F1B3
:10072C00000F45D128B1029A002A5CD0BBF1000F12
:10073C0074D0002B00DA04340BF1010B04EB8B04A6
:10074C00C0E7B8F1000F19D1B0B163682268991CE9
:10075C004FEAD2723FF47CAF05F15801013304919A
:10076C0000F09180201DFFF7B7FD04AB0146284631
:10077C00AFF3008000285CD10834A3E70D21384684
:10078C00D5F82090FFF7C8FE8145F5D1AB6A9C42A5
:10079C00F2D12046FFF7D4FC0F2102463846FFF772
:1007AC00E1FE38462A460021FFF7DCFE072050E721
:1007BC000D213846D5F82090FFF7AEFE814501D0CB
:1007CC002368B6E7AB6A9C42FAD104230022C5E940
:1007DC000B23E318C5F828B06B632368002B5ADB96
:1007EC0001230193A8E705F15803CDF80C8091463D
:1007FC00B04604F1040A1E460EE050460496FFF77C
:10080C006BFD0022014604AB284609F101090AF1EF
:10081C00040AAFF30080E8B9D945EED10D21384672
:10082C00FFF77AFE0346049A0620C5E909242B62D9
:10083C000FE781460D213846FFF76EFEB9F1020F26
:10084C00286225D12B46049A43F82C2F6B62062084
:10085C00AC62FEE646462368DDF80C8069E720466C
:10086C00FFF76EFC02460434AC6328461446AFF323
:10087C00008000283FF4ECAE384622460F21FFF7EB
:10088C0071FE0720E5E60D213846FFF745FE28628C
:10089C00049B6B62DBE70BF1010004EB800079E752
:1008AC00000000000023A9E60123A7E60223A5E629
:1008BC002DE9F043064615461C46C3B0042900F248
:1008CC00B880DFE801F09C56B62D0300002C40F0F8
:1008DC00B080102A00F2AD800368D80600F1F180D8
:1008EC0020AF384600F090F9012438460023B16B54
:1008FC0004FA03F22A4203F1010305D00A4652F826
:10090C0004CB1146C0F800C0042B00F10400EFD159
:10091C003846B16300F06EF9002043B0BDE8F083B7
:10092C00032C40F0868094B204EB1243102B4FEA58
:10093C0012457ED803681F0700F1CB8020AF3846E4
:10094C0000F036F9B26B07EBC50154B10B4601EB65
:10095C00C401D01AE4001D5843F8045B8B42FAD151
:10096C0022443846B26300F001F9002043B0BDE8E0
:10097C00F083012C4FEA124895B256D0052C58D171
:10098C0008EB0509B9F1200F53D8B8F10F0F73D943
:10099C00A946002D40F08480B36B65B320AF4FF0B7
:1009AC00000907EBC807043F03EBC50553F8041B0C
:1009BC00AB4247F8041FF9D1B9F1000F0FD06F46C5
:1009CC004146102938BF102107EBC101843903EBD4
:1009DC00C90553F8040BAB4241F8040FF9D1012CB3
:1009EC007FD0B8F10F0FB56342D9B9F1000F02D027
:1009FC00684600F0B3F8002043B0BDE8F083C4B9FA
:100A0C0023460124826B371DA8B204FA03F101427C
:100A1C001CBF52F8041B47F823100133102BF4D1E0
:100A2C0015F40050E7D1B26304E008EB0503102B7A
:100A3C0003D9022043B0BDE8F083B8F10F0FF8D80A
:100A4C003368DA0706D5304623F0030340F8483BF9
:100A5C0000F078F820AF384600F074F8B36B002D36
:100A6C009DD11D4604353846B56300F067F8C2E7E2
:100A7C0020A800F06BF8B8E7B9F1100F3FD9A9F135
:100A8C0010093368D90708D5304623F0010343F029
:100A9C00020340F8483B00F05DF8B9F1000F31D08B
:100AAC0033685A071FD4B8F10F0F24D96F46C8F119
:100ABC001005384600F056F8002DB36B80DD20AFE2
:100ACC006FE723F01003336006F5E87000F09CF834
:100ADC0006E723F00803036000F5A87000F068F83F
:100AEC002CE720AFBEE7304623F0040340F8D03BA0
:100AFC0000F038F8D7E720A800F02CF8D6E74FF034
:100B0C000009BEE7B8F10F0F3FF646AF20AF3846ED
:100B1C0000F020F8B36B002D7FF441AF384600F0A5
:100B2C0015F868E700F1340191E838009C46A646B8
:100B3C004CF8045D90E8FF0FE54600BD90EC210BEE
:100B4C00704700BF80EC210B704700BF90EC200B6E
:100B5C00704700BF80EC200B704700BFD0EC200B1F
:100B6C00704700BFC0EC200B704700BFF0EC0201D7
:100B7C00F0EC0211F0EC0221F0EC0231F0EC02414D
:100B8C00F0EC0251F0EC0261F0EC0271F0EC02813D
:100B9C00F0EC0291F0EC02A1F0EC02B1F0EC02C12D
:100BAC00F0EC02D1F0EC02E1F0EC02F1704700BF86
:100BBC00E0EC0201E0EC0211E0EC0221E0EC02318D
:100BCC00E0EC0241E0EC0251E0EC0261E0EC02717D
:100BDC00E0EC0281E0EC0291E0EC02A1E0EC02B16D
:100BEC00E0EC02C1E0EC02D1E0EC02E1E0EC02F15D
:100BFC00704700BFB0FC0181B0FC0191B0FC01A1B9
:100C0C00B0FC01B1704700BFA0FC0181A0FC0191B8
:100C1C00A0FC01A1A0FC01B1704700BFEC4600B5DF
:100C2C002DE900502DE9FF1F4FF000032DE90C00BA
:100C3C0001A9FFF7E7FBDDF840E012B0704700BFF9
:100C4C00EC4600B52DE900502DE9FF1F4FF00003D5
:100C5C002DE90C0001A9FFF713FCDDF840E012B000
:100C6C00704700BFEC4600B52DE900502DE9FF1F81
:100C7C004FF000032DE90C0001A9FFF723FCDDF870
:100C8C0040E012B0704700BFEC4600B52DE90050B3
:100C9C002DE9FF1F4FF000032DE90C0001ABFFF70E
:100CAC00E5FBDDF840E012B0704700BFEC4600B544
:100CBC002DE900502DE9FF1F4FF000032DE90C002A
:100CCC0001AAFFF75BFCDDF840E012B0704700BFF3
:100CDC00027A03467AB9427AA2B14FF0030C41680A
:100CEC00013A427208680A1D5A60020283F808C071
:100CFC00000E1A6070470068013A1A7202021A60FC
:100D0C00000E7047B0207047002300B585B003A9D2
:100D1C0000910C221946FFF7E7FB039805B05DF82C
:100D2C0004FB00BFF0E700BF2DE9F0434FF00008D3
:100D3C0005460E4685B03046FFF7CAFFB02804467C
:100D4C0000F0BA80070620D500F0F003802B4DD0C0
:100D5C00902B36D0A02B60D0B02B73D0C02B00F0D2
:100D6C008A8000F0F803D02B0BD100F0070201327F
:100D7C0005230121284642F40022FFF799FD0028A3
:100D8C00D9D0092005B0BDE8F0838300DBB21F1D6C
:100D9C0000230DF10C0919460D222846CDF80090C0
:100DAC00FFF7A2FB039B60064CBFDF1BFF18002361
:100DBC000D2228461946CDF800900397FFF7BAFB91
:100DCC00B9E700F00D030D2BDBD0002303AF194660
:100DDC0000F00F0200972846FFF786FB00230D2238
:100DEC00284619460097FFF7A5FBA4E73046FFF706
:100DFC006FFF24022043B0F5004FC2D00023040142
:100E0C0019462846A2B2FFF753FD0028B9D114F4B5
:100E1C00004F18BF4FF001088DE7C3434FF47F62BA
:100E2C0003F007031A410023010702F47F6248BF55
:100E3C0042F4804228461946FFF73AFD00283FF459
:100E4C007AAF9EE7B1283CD0B22800F0B080B3282E
:100E5C004AD000F0FC03B42B93D0012300F007021E
:100E6C001A442846194642F40022FFF721FD0028B7
:100E7C003FF461AF85E7C6284FD0C72861D000F09A
:100E8C00F803C02B70D0C8287CD0C9287FF479AF68
:100E9C003046FFF71DFF05230246012128461403A7
:100EAC0002F00F0204F470240A442243FFF700FD01
:100EBC0000283FF440AF64E7B8F1000F1CD00020CD
:100ECC0060E73046FFF704FF024600283FF459AFB5
:100EDC0010F0F0037FF455AF19462846FFF7E8FCF5
:100EEC0000283FF428AF4CE73046FFF7F1FE012312
:100EFC00024619462846D2E703AC43460E22414629
:100F0C0028460094FFF7F0FA43460F222846414644
:100F1C000094FFF70FFB404634E73046FFF7D8FE4E
:100F2C0002460323140302F00F0204F4702401326E
:100F3C00284619462243FFF7BBFC00283FF4FBAEC2
:100F4C001FE73046FFF7C4FE024600283FF419AFF6
:100F5C0010F0F0037FF415AF04212846FFF7A8FC2E
:100F6C0000283FF4E8AE0CE7032300F00F02013237
:100F7C002846194642F42022FFF79AFC00283FF439
:100F8C00DAAEFEE63046FFF7A3FE0246012102F080
:100F9C00F00402F00F0210340A440523284642EAFA
:100FAC000432FFF785FC00283FF4C5AEE9E60023C8
:100FBC000DF10C090D2219462846CDF80090FFF7CB
:100FCC0093FA3046FFF784FE02064FF002040CD56C
:100FDC00039B00F07F00A040184403903046FFF7BD
:100FEC0077FE030604F10704F2D4039B00F07F02A2
:100FFC00A24003F501731A440023039228460D22E4
:10100C001946CDF80090FFF795FA94E60B464FF091
:10101C00030C00B5C26C1846536885B008320292B6
:10102C0001A91A0E1B028DF80CC001938DF80D202E
:10103C00FFF77AFE05B05DF804FB00BF08B5FFF7BB
:10104C0071FE806C08BD00BF08B5FFF76BFEC06C6D
:10105C00C379023300EB830008BD00BF10B40160FC
:10106C000271204B994224D003F58063994222D01F
:10107C00A3F5006399421AD000211B4A93690B43D4
:10108C0093610379062B18D8046822689B000F2102
:10109C0001FA03F322EA030323600468236802794C
:1010AC00910001228A401343236010BC7047042135
:1010BC00E3E70821E1E71021DFE704682268083B39
:1010CC009B000F2101FA03F322EA03032360046857
:1010DC0063680279A2F1080101228A4063EA0203E3
:1010EC006360E2E7000C0140001002400168CB682D
:1010FC000079012282401343CB60704700B583B066
:10110C00042205496846FFF7A9FF6846FFF7EEFF82
:10111C00002003B05DF804FB00080140704700009C
:10112C000C480D490D4A002302E0D458C450043336
:10113C00C4188C42F9D30A4A0A4C002301E013600C
:10114C000432A242FBD3FFF7E9FF00F00FF8FFF7E0
:10115C00D5FF7047000000206400002098130008A1
:10116C006400002084000020FEE7000070B500261B
:10117C000C4D0D4C641BA410A64209D100F086F84E
:10118C0000260A4D0A4C641BA410A64205D170BD62
:10119C0055F8043B98470136EEE755F8043B984761
:1011AC000136F2E790130008901300089013000822
:1011BC0094130008062008B500F03AF8012000F05E
:1011CC0063F80A44914200F1FF3300D1704710B527
:1011DC0011F8014B914203F8014FF9D110BD1F29B1
:1011EC0038B504460D4604D9162303604FF0FF3082
:1011FC0038BD426C12B152F821304BB9204600F088
:10120C0031F82A4601462046BDE8384000F018B8AF
:10121C00012B0AD0591C03D1162303600120E7E7E8
:10122C000024284642F8254098470020E0E70000BB
:10123C00024B01461868FFF7D2BF00BF0000002028
:10124C0038B50023064D0446084611462B6000F0C5
:10125C0013F8431C02D12B6803B1236038BD00BFC7
:10126C008000002000F000B85822024B4FF0FF30F5
:10127C001A607047800000205822024B4FF0FF305C
:10128C001A60704780000020FEE700BFF8B500BF71
:10129C00F8BC08BC9E467047F8B500BFF8BC08BC4B
:0412AC009E467047A3
:1012B00008B10181B0B000840000000008B10181D4
:0812C000B0B000840000000042
:1012C80084EEFF7F0100000018EFFF7FB0A90280C5
:1012D800B0EFFF7FB0B0A88000F0FF7F01000000F2
:1012E8000CF0FF7FB0B0AA8044F0FF7FAE71B280EF
:1012F80014F1FF7F0100000010F1FF7FAB3F388041
:1013080070F1FF7F010000007CF1FF7FB0B0AA8080
:10131800B8F1FF7F0100000068F2FF7FAA0DB280DC
:10132800E0F2FF7FB0AF088080F5FF7F010000008A
:1013380084F5FF7FAD3F0280F0F7FF7F01000000DA
:10134800CCF9FF7F00840480E0F9FF7F01000000F2
:10135800DCF9FF7FB0AD0480B8FCFF7F0084048017
:10136800E0FCFF7F44FFFF7FE4FCFF7F48FFFF7F37
:10137800F0FCFF7F0100000088FDFF7F00840280F1
:08138800A0FDFF7F0100000041
:04139000310100081F
:041394000D0100083F
:101398000400002000000000000000000000000021
:1013A8000000000000000000000000000000000035
:1013B8000000000000000000000000000000000025
:1013C8000000000000000000000000000000000015
:1013D8000000000000000000000000000000000005
:1013E80000000000000000000000000000000000F5
:0413F80000000000F1
:040000050800112DB1
:00000001FF
